:020000020000FC
:040000000C94360026
:040024000C94D00068
:100068000C94F50000E000934004B4E0A0E518E02B
:100078000C9108680D931A95D9F70FEF00930004B7
:100088000093600400E00093800400E00093010AFC
:1000980001E000930A0A02E30093260A00E00093B5
:1000A800270A0DE00093000AF0E4E4E0D0E4C0E0A1
:1000B80070E003E00093B00004E0009393040AE0CA
:1000C8000093020601E0009300060BE00093080687
:1000D80001E000930A0600930C060E94DE00789463
:1000E8000000FECFF0E4E4E0D0E4C0E01F932F93DB
:1000F8003F937093084010910840103031F0113050
:1001080081F01230C9F0133019F12881206830EFDE
:10011800309304042093640430EE30930404739500
:1001280023C0298130EF309304042093640430ED18
:1001380030930404739518C02A81206830EF3093F7
:1001480004042093640430EB3093040473950CC0CA
:100158002B81206830EF309304042093640430E747
:100168003093040470E000C03F912F911F910895CF
:10017800EF93FF93F1E0E0E900E01F70E10FF01F5B
:100188001491FF91EF910895014F12064C24200F0E
:1001980000040860314230380F930FB70F931F9354
:1001A8000E94760001E000930B0A1F910F910FBF88
:1001B8000F91189500E0088309830A830B830E9436
:1001C800EB000FEF088309830A830B83089578E215
:1001D8005FEF65E86A95F1F75A95D9F77A95C1F70F
:1001E80008950F931F932F933F934F935F936F93AC
:1001F800009110061091110639E024EC0E94A30129
:1002080064E05695479537956A95D9F7032F142FCB
:100218000E9470010E2D0F70053070F10E2D15E043
:100228000E94B2010F70F0E4E4E0028300E003836F
:100238000D2D007F02951D2D1F70018310831081E5
:100248000E94BC00188311810E94BC00198312818E
:100258000E94BC001A8313810E94BC001B8301E02A
:1002680000930D0600930A066F915F914F913F919D
:100278002F911F910F911895F0E4E4E009E91D2DE5
:100288000E94B20111E0010F102F107F12950F701C
:100298001183008304E01E2D1F700E94B2010F70AD
:1002A800028310810E94BC00188311810E94BC0047
:1002B800198312810E94BC001A831EEF1B8301E080
:1002C80000930D0600930A066F915F914F913F913D
:1002D8002F911F910F9118950F931F932F933F9371
:1002E80020E140E04093094040930A4040930B408E
:1002F800D0900940E0900A40F0900B40000F111F89
:10030800DD1CEE1CFF1CD0920940E0920A40F092DE
:100318000B402A9529F43F912F911F910F91089531
:10032800ECE0F0E432913D5F33FD30833081305DA5
:1003380037FD3083E930B1F7F034A1F7D9CF55272D
:10034800442760E13695279510F4400F511F5795C3
:100358004795379527956A95B9F70895011B112791
:1003680008F411E00DF4065010FF0895005611E04E
:0603780008F411E00895F5
:00000001FF
